{
	"data": {
		"bytecode": {
			"linkReferences": {},
			"object": "6080604052348015600e575f80fd5b50610e1d8061001c5f395ff3fe608060405234801561000f575f80fd5b506004361061004a575f3560e01c806364591bf11461004e57806381a1405f1461007e5780639fa05b281461009a578063cd81ee61146100a4575b5f80fd5b61006860048036038101906100639190610330565b6100d4565b60405161007591906103d5565b60405180910390f35b610098600480360381019061009391906103ee565b61010e565b005b6100a26101b2565b005b6100be60048036038101906100b99190610330565b61023d565b6040516100cb919061043b565b60405180910390f35b5f81815481106100e2575f80fd5b905f5260205f20015f915054906101000a900473ffffffffffffffffffffffffffffffffffffffff1681565b5f828154811061012157610120610454565b5b905f5260205f20015f9054906101000a900473ffffffffffffffffffffffffffffffffffffffff1673ffffffffffffffffffffffffffffffffffffffff16636057361d826040518263ffffffff1660e01b8152600401610181919061043b565b5f604051808303815f87803b158015610198575f80fd5b505af11580156101aa573d5f803e3d5ffd5b505050505050565b5f6040516101bf906102ec565b604051809103905ff0801580156101d8573d5f803e3d5ffd5b5090505f81908060018154018082558091505060019003905f5260205f20015f9091909190916101000a81548173ffffffffffffffffffffffffffffffffffffffff021916908373ffffffffffffffffffffffffffffffffffffffff16021790555050565b5f80828154811061025157610250610454565b5b905f5260205f20015f9054906101000a900473ffffffffffffffffffffffffffffffffffffffff1673ffffffffffffffffffffffffffffffffffffffff16632e64cec16040518163ffffffff1660e01b8152600401602060405180830381865afa1580156102c1573d5f803e3d5ffd5b505050506040513d601f19601f820116820180604052508101906102e59190610495565b9050919050565b610927806104c183390190565b5f80fd5b5f819050919050565b61030f816102fd565b8114610319575f80fd5b50565b5f8135905061032a81610306565b92915050565b5f60208284031215610345576103446102f9565b5b5f6103528482850161031c565b91505092915050565b5f73ffffffffffffffffffffffffffffffffffffffff82169050919050565b5f819050919050565b5f61039d6103986103938461035b565b61037a565b61035b565b9050919050565b5f6103ae82610383565b9050919050565b5f6103bf826103a4565b9050919050565b6103cf816103b5565b82525050565b5f6020820190506103e85f8301846103c6565b92915050565b5f8060408385031215610404576104036102f9565b5b5f6104118582860161031c565b92505060206104228582860161031c565b9150509250929050565b610435816102fd565b82525050565b5f60208201905061044e5f83018461042c565b92915050565b7f4e487b71000000000000000000000000000000000000000000000000000000005f52603260045260245ffd5b5f8151905061048f81610306565b92915050565b5f602082840312156104aa576104a96102f9565b5b5f6104b784828501610481565b9150509291505056fe6080604052348015600e575f80fd5b5061090b8061001c5f395ff3fe608060405234801561000f575f80fd5b5060043610610060575f3560e01c80632e64cec114610064578063471f7cdf146100825780636057361d146100a05780638bab8dd5146100bc5780639e7a13ad146100ec578063bc832d4e1461011d575b5f80fd5b61006c610139565b60405161007991906102d2565b60405180910390f35b61008a610141565b60405161009791906102d2565b60405180910390f35b6100ba60048036038101906100b59190610326565b610146565b005b6100d660048036038101906100d1919061048d565b61014f565b6040516100e391906102d2565b60405180910390f35b61010660048036038101906101019190610326565b61017c565b604051610114929190610534565b60405180910390f35b61013760048036038101906101329190610562565b610231565b005b5f8054905090565b5f5481565b805f8190555050565b6001818051602081018201805184825260208301602085012081835280955050505050505f915090505481565b6002818154811061018b575f80fd5b905f5260205f2090600202015f91509050805f0154908060010180546101b0906105e9565b80601f01602080910402602001604051908101604052809291908181526020018280546101dc906105e9565b80156102275780601f106101fe57610100808354040283529160200191610227565b820191905f5260205f20905b81548152906001019060200180831161020a57829003601f168201915b5050505050905082565b5f6040518060400160405280848152602001838152509050600281908060018154018082558091505060019003905f5260205f2090600202015f909190919091505f820151815f0155602082015181600101908161028f91906107b6565b505050826001836040516102a391906108bf565b908152602001604051809103902081905550505050565b5f819050919050565b6102cc816102ba565b82525050565b5f6020820190506102e55f8301846102c3565b92915050565b5f604051905090565b5f80fd5b5f80fd5b610305816102ba565b811461030f575f80fd5b50565b5f81359050610320816102fc565b92915050565b5f6020828403121561033b5761033a6102f4565b5b5f61034884828501610312565b91505092915050565b5f80fd5b5f80fd5b5f601f19601f8301169050919050565b7f4e487b71000000000000000000000000000000000000000000000000000000005f52604160045260245ffd5b61039f82610359565b810181811067ffffffffffffffff821117156103be576103bd610369565b5b80604052505050565b5f6103d06102eb565b90506103dc8282610396565b919050565b5f67ffffffffffffffff8211156103fb576103fa610369565b5b61040482610359565b9050602081019050919050565b828183375f83830152505050565b5f61043161042c846103e1565b6103c7565b90508281526020810184848401111561044d5761044c610355565b5b610458848285610411565b509392505050565b5f82601f83011261047457610473610351565b5b813561048484826020860161041f565b91505092915050565b5f602082840312156104a2576104a16102f4565b5b5f82013567ffffffffffffffff8111156104bf576104be6102f8565b5b6104cb84828501610460565b91505092915050565b5f81519050919050565b5f82825260208201905092915050565b8281835e5f83830152505050565b5f610506826104d4565b61051081856104de565b93506105208185602086016104ee565b61052981610359565b840191505092915050565b5f6040820190506105475f8301856102c3565b818103602083015261055981846104fc565b90509392505050565b5f8060408385031215610578576105776102f4565b5b5f61058585828601610312565b925050602083013567ffffffffffffffff8111156105a6576105a56102f8565b5b6105b285828601610460565b9150509250929050565b7f4e487b71000000000000000000000000000000000000000000000000000000005f52602260045260245ffd5b5f600282049050600182168061060057607f821691505b602082108103610613576106126105bc565b5b50919050565b5f819050815f5260205f209050919050565b5f6020601f8301049050919050565b5f82821b905092915050565b5f600883026106757fffffffffffffffffffffffffffffffffffffffffffffffffffffffffffffffff8261063a565b61067f868361063a565b95508019841693508086168417925050509392505050565b5f819050919050565b5f6106ba6106b56106b0846102ba565b610697565b6102ba565b9050919050565b5f819050919050565b6106d3836106a0565b6106e76106df826106c1565b848454610646565b825550505050565b5f90565b6106fb6106ef565b6107068184846106ca565b505050565b5b818110156107295761071e5f826106f3565b60018101905061070c565b5050565b601f82111561076e5761073f81610619565b6107488461062b565b81016020851015610757578190505b61076b6107638561062b565b83018261070b565b50505b505050565b5f82821c905092915050565b5f61078e5f1984600802610773565b1980831691505092915050565b5f6107a6838361077f565b9150826002028217905092915050565b6107bf826104d4565b67ffffffffffffffff8111156107d8576107d7610369565b5b6107e282546105e9565b6107ed82828561072d565b5f60209050601f83116001811461081e575f841561080c578287015190505b610816858261079b565b86555061087d565b601f19841661082c86610619565b5f5b828110156108535784890151825560018201915060208501945060208101905061082e565b86831015610870578489015161086c601f89168261077f565b8355505b6001600288020188555050505b505050505050565b5f81905092915050565b5f610899826104d4565b6108a38185610885565b93506108b38185602086016104ee565b80840191505092915050565b5f6108ca828461088f565b91508190509291505056fea264697066735822122013594b9bbd9e4eee5f8e415d775e5c1c3f95f199382316235d253ba24483de4b64736f6c63430008190033a264697066735822122018a2f85e5a17cf7d789f25c73a8e1745f271557cc58f50239296aa07a2f136dc64736f6c63430008190033",
			"opcodes": "PUSH1 0x80 PUSH1 0x40 MSTORE CALLVALUE DUP1 ISZERO PUSH1 0xE JUMPI PUSH0 DUP1 REVERT JUMPDEST POP PUSH2 0xE1D DUP1 PUSH2 0x1C PUSH0 CODECOPY PUSH0 RETURN INVALID PUSH1 0x80 PUSH1 0x40 MSTORE CALLVALUE DUP1 ISZERO PUSH2 0xF JUMPI PUSH0 DUP1 REVERT JUMPDEST POP PUSH1 0x4 CALLDATASIZE LT PUSH2 0x4A JUMPI PUSH0 CALLDATALOAD PUSH1 0xE0 SHR DUP1 PUSH4 0x64591BF1 EQ PUSH2 0x4E JUMPI DUP1 PUSH4 0x81A1405F EQ PUSH2 0x7E JUMPI DUP1 PUSH4 0x9FA05B28 EQ PUSH2 0x9A JUMPI DUP1 PUSH4 0xCD81EE61 EQ PUSH2 0xA4 JUMPI JUMPDEST PUSH0 DUP1 REVERT JUMPDEST PUSH2 0x68 PUSH1 0x4 DUP1 CALLDATASIZE SUB DUP2 ADD SWAP1 PUSH2 0x63 SWAP2 SWAP1 PUSH2 0x330 JUMP JUMPDEST PUSH2 0xD4 JUMP JUMPDEST PUSH1 0x40 MLOAD PUSH2 0x75 SWAP2 SWAP1 PUSH2 0x3D5 JUMP JUMPDEST PUSH1 0x40 MLOAD DUP1 SWAP2 SUB SWAP1 RETURN JUMPDEST PUSH2 0x98 PUSH1 0x4 DUP1 CALLDATASIZE SUB DUP2 ADD SWAP1 PUSH2 0x93 SWAP2 SWAP1 PUSH2 0x3EE JUMP JUMPDEST PUSH2 0x10E JUMP JUMPDEST STOP JUMPDEST PUSH2 0xA2 PUSH2 0x1B2 JUMP JUMPDEST STOP JUMPDEST PUSH2 0xBE PUSH1 0x4 DUP1 CALLDATASIZE SUB DUP2 ADD SWAP1 PUSH2 0xB9 SWAP2 SWAP1 PUSH2 0x330 JUMP JUMPDEST PUSH2 0x23D JUMP JUMPDEST PUSH1 0x40 MLOAD PUSH2 0xCB SWAP2 SWAP1 PUSH2 0x43B JUMP JUMPDEST PUSH1 0x40 MLOAD DUP1 SWAP2 SUB SWAP1 RETURN JUMPDEST PUSH0 DUP2 DUP2 SLOAD DUP2 LT PUSH2 0xE2 JUMPI PUSH0 DUP1 REVERT JUMPDEST SWAP1 PUSH0 MSTORE PUSH1 0x20 PUSH0 KECCAK256 ADD PUSH0 SWAP2 POP SLOAD SWAP1 PUSH2 0x100 EXP SWAP1 DIV PUSH20 0xFFFFFFFFFFFFFFFFFFFFFFFFFFFFFFFFFFFFFFFF AND DUP2 JUMP JUMPDEST PUSH0 DUP3 DUP2 SLOAD DUP2 LT PUSH2 0x121 JUMPI PUSH2 0x120 PUSH2 0x454 JUMP JUMPDEST JUMPDEST SWAP1 PUSH0 MSTORE PUSH1 0x20 PUSH0 KECCAK256 ADD PUSH0 SWAP1 SLOAD SWAP1 PUSH2 0x100 EXP SWAP1 DIV PUSH20 0xFFFFFFFFFFFFFFFFFFFFFFFFFFFFFFFFFFFFFFFF AND PUSH20 0xFFFFFFFFFFFFFFFFFFFFFFFFFFFFFFFFFFFFFFFF AND PUSH4 0x6057361D DUP3 PUSH1 0x40 MLOAD DUP3 PUSH4 0xFFFFFFFF AND PUSH1 0xE0 SHL DUP2 MSTORE PUSH1 0x4 ADD PUSH2 0x181 SWAP2 SWAP1 PUSH2 0x43B JUMP JUMPDEST PUSH0 PUSH1 0x40 MLOAD DUP1 DUP4 SUB DUP2 PUSH0 DUP8 DUP1 EXTCODESIZE ISZERO DUP1 ISZERO PUSH2 0x198 JUMPI PUSH0 DUP1 REVERT JUMPDEST POP GAS CALL ISZERO DUP1 ISZERO PUSH2 0x1AA JUMPI RETURNDATASIZE PUSH0 DUP1 RETURNDATACOPY RETURNDATASIZE PUSH0 REVERT JUMPDEST POP POP POP POP POP POP JUMP JUMPDEST PUSH0 PUSH1 0x40 MLOAD PUSH2 0x1BF SWAP1 PUSH2 0x2EC JUMP JUMPDEST PUSH1 0x40 MLOAD DUP1 SWAP2 SUB SWAP1 PUSH0 CREATE DUP1 ISZERO DUP1 ISZERO PUSH2 0x1D8 JUMPI RETURNDATASIZE PUSH0 DUP1 RETURNDATACOPY RETURNDATASIZE PUSH0 REVERT JUMPDEST POP SWAP1 POP PUSH0 DUP2 SWAP1 DUP1 PUSH1 0x1 DUP2 SLOAD ADD DUP1 DUP3 SSTORE DUP1 SWAP2 POP POP PUSH1 0x1 SWAP1 SUB SWAP1 PUSH0 MSTORE PUSH1 0x20 PUSH0 KECCAK256 ADD PUSH0 SWAP1 SWAP2 SWAP1 SWAP2 SWAP1 SWAP2 PUSH2 0x100 EXP DUP2 SLOAD DUP2 PUSH20 0xFFFFFFFFFFFFFFFFFFFFFFFFFFFFFFFFFFFFFFFF MUL NOT AND SWAP1 DUP4 PUSH20 0xFFFFFFFFFFFFFFFFFFFFFFFFFFFFFFFFFFFFFFFF AND MUL OR SWAP1 SSTORE POP POP JUMP JUMPDEST PUSH0 DUP1 DUP3 DUP2 SLOAD DUP2 LT PUSH2 0x251 JUMPI PUSH2 0x250 PUSH2 0x454 JUMP JUMPDEST JUMPDEST SWAP1 PUSH0 MSTORE PUSH1 0x20 PUSH0 KECCAK256 ADD PUSH0 SWAP1 SLOAD SWAP1 PUSH2 0x100 EXP SWAP1 DIV PUSH20 0xFFFFFFFFFFFFFFFFFFFFFFFFFFFFFFFFFFFFFFFF AND PUSH20 0xFFFFFFFFFFFFFFFFFFFFFFFFFFFFFFFFFFFFFFFF AND PUSH4 0x2E64CEC1 PUSH1 0x40 MLOAD DUP2 PUSH4 0xFFFFFFFF AND PUSH1 0xE0 SHL DUP2 MSTORE PUSH1 0x4 ADD PUSH1 0x20 PUSH1 0x40 MLOAD DUP1 DUP4 SUB DUP2 DUP7 GAS STATICCALL ISZERO DUP1 ISZERO PUSH2 0x2C1 JUMPI RETURNDATASIZE PUSH0 DUP1 RETURNDATACOPY RETURNDATASIZE PUSH0 REVERT JUMPDEST POP POP POP POP PUSH1 0x40 MLOAD RETURNDATASIZE PUSH1 0x1F NOT PUSH1 0x1F DUP3 ADD AND DUP3 ADD DUP1 PUSH1 0x40 MSTORE POP DUP2 ADD SWAP1 PUSH2 0x2E5 SWAP2 SWAP1 PUSH2 0x495 JUMP JUMPDEST SWAP1 POP SWAP2 SWAP1 POP JUMP JUMPDEST PUSH2 0x927 DUP1 PUSH2 0x4C1 DUP4 CODECOPY ADD SWAP1 JUMP JUMPDEST PUSH0 DUP1 REVERT JUMPDEST PUSH0 DUP2 SWAP1 POP SWAP2 SWAP1 POP JUMP JUMPDEST PUSH2 0x30F DUP2 PUSH2 0x2FD JUMP JUMPDEST DUP2 EQ PUSH2 0x319 JUMPI PUSH0 DUP1 REVERT JUMPDEST POP JUMP JUMPDEST PUSH0 DUP2 CALLDATALOAD SWAP1 POP PUSH2 0x32A DUP2 PUSH2 0x306 JUMP JUMPDEST SWAP3 SWAP2 POP POP JUMP JUMPDEST PUSH0 PUSH1 0x20 DUP3 DUP5 SUB SLT ISZERO PUSH2 0x345 JUMPI PUSH2 0x344 PUSH2 0x2F9 JUMP JUMPDEST JUMPDEST PUSH0 PUSH2 0x352 DUP5 DUP3 DUP6 ADD PUSH2 0x31C JUMP JUMPDEST SWAP2 POP POP SWAP3 SWAP2 POP POP JUMP JUMPDEST PUSH0 PUSH20 0xFFFFFFFFFFFFFFFFFFFFFFFFFFFFFFFFFFFFFFFF DUP3 AND SWAP1 POP SWAP2 SWAP1 POP JUMP JUMPDEST PUSH0 DUP2 SWAP1 POP SWAP2 SWAP1 POP JUMP JUMPDEST PUSH0 PUSH2 0x39D PUSH2 0x398 PUSH2 0x393 DUP5 PUSH2 0x35B JUMP JUMPDEST PUSH2 0x37A JUMP JUMPDEST PUSH2 0x35B JUMP JUMPDEST SWAP1 POP SWAP2 SWAP1 POP JUMP JUMPDEST PUSH0 PUSH2 0x3AE DUP3 PUSH2 0x383 JUMP JUMPDEST SWAP1 POP SWAP2 SWAP1 POP JUMP JUMPDEST PUSH0 PUSH2 0x3BF DUP3 PUSH2 0x3A4 JUMP JUMPDEST SWAP1 POP SWAP2 SWAP1 POP JUMP JUMPDEST PUSH2 0x3CF DUP2 PUSH2 0x3B5 JUMP JUMPDEST DUP3 MSTORE POP POP JUMP JUMPDEST PUSH0 PUSH1 0x20 DUP3 ADD SWAP1 POP PUSH2 0x3E8 PUSH0 DUP4 ADD DUP5 PUSH2 0x3C6 JUMP JUMPDEST SWAP3 SWAP2 POP POP JUMP JUMPDEST PUSH0 DUP1 PUSH1 0x40 DUP4 DUP6 SUB SLT ISZERO PUSH2 0x404 JUMPI PUSH2 0x403 PUSH2 0x2F9 JUMP JUMPDEST JUMPDEST PUSH0 PUSH2 0x411 DUP6 DUP3 DUP7 ADD PUSH2 0x31C JUMP JUMPDEST SWAP3 POP POP PUSH1 0x20 PUSH2 0x422 DUP6 DUP3 DUP7 ADD PUSH2 0x31C JUMP JUMPDEST SWAP2 POP POP SWAP3 POP SWAP3 SWAP1 POP JUMP JUMPDEST PUSH2 0x435 DUP2 PUSH2 0x2FD JUMP JUMPDEST DUP3 MSTORE POP POP JUMP JUMPDEST PUSH0 PUSH1 0x20 DUP3 ADD SWAP1 POP PUSH2 0x44E PUSH0 DUP4 ADD DUP5 PUSH2 0x42C JUMP JUMPDEST SWAP3 SWAP2 POP POP JUMP JUMPDEST PUSH32 0x4E487B7100000000000000000000000000000000000000000000000000000000 PUSH0 MSTORE PUSH1 0x32 PUSH1 0x4 MSTORE PUSH1 0x24 PUSH0 REVERT JUMPDEST PUSH0 DUP2 MLOAD SWAP1 POP PUSH2 0x48F DUP2 PUSH2 0x306 JUMP JUMPDEST SWAP3 SWAP2 POP POP JUMP JUMPDEST PUSH0 PUSH1 0x20 DUP3 DUP5 SUB SLT ISZERO PUSH2 0x4AA JUMPI PUSH2 0x4A9 PUSH2 0x2F9 JUMP JUMPDEST JUMPDEST PUSH0 PUSH2 0x4B7 DUP5 DUP3 DUP6 ADD PUSH2 0x481 JUMP JUMPDEST SWAP2 POP POP SWAP3 SWAP2 POP POP JUMP INVALID PUSH1 0x80 PUSH1 0x40 MSTORE CALLVALUE DUP1 ISZERO PUSH1 0xE JUMPI PUSH0 DUP1 REVERT JUMPDEST POP PUSH2 0x90B DUP1 PUSH2 0x1C PUSH0 CODECOPY PUSH0 RETURN INVALID PUSH1 0x80 PUSH1 0x40 MSTORE CALLVALUE DUP1 ISZERO PUSH2 0xF JUMPI PUSH0 DUP1 REVERT JUMPDEST POP PUSH1 0x4 CALLDATASIZE LT PUSH2 0x60 JUMPI PUSH0 CALLDATALOAD PUSH1 0xE0 SHR DUP1 PUSH4 0x2E64CEC1 EQ PUSH2 0x64 JUMPI DUP1 PUSH4 0x471F7CDF EQ PUSH2 0x82 JUMPI DUP1 PUSH4 0x6057361D EQ PUSH2 0xA0 JUMPI DUP1 PUSH4 0x8BAB8DD5 EQ PUSH2 0xBC JUMPI DUP1 PUSH4 0x9E7A13AD EQ PUSH2 0xEC JUMPI DUP1 PUSH4 0xBC832D4E EQ PUSH2 0x11D JUMPI JUMPDEST PUSH0 DUP1 REVERT JUMPDEST PUSH2 0x6C PUSH2 0x139 JUMP JUMPDEST PUSH1 0x40 MLOAD PUSH2 0x79 SWAP2 SWAP1 PUSH2 0x2D2 JUMP JUMPDEST PUSH1 0x40 MLOAD DUP1 SWAP2 SUB SWAP1 RETURN JUMPDEST PUSH2 0x8A PUSH2 0x141 JUMP JUMPDEST PUSH1 0x40 MLOAD PUSH2 0x97 SWAP2 SWAP1 PUSH2 0x2D2 JUMP JUMPDEST PUSH1 0x40 MLOAD DUP1 SWAP2 SUB SWAP1 RETURN JUMPDEST PUSH2 0xBA PUSH1 0x4 DUP1 CALLDATASIZE SUB DUP2 ADD SWAP1 PUSH2 0xB5 SWAP2 SWAP1 PUSH2 0x326 JUMP JUMPDEST PUSH2 0x146 JUMP JUMPDEST STOP JUMPDEST PUSH2 0xD6 PUSH1 0x4 DUP1 CALLDATASIZE SUB DUP2 ADD SWAP1 PUSH2 0xD1 SWAP2 SWAP1 PUSH2 0x48D JUMP JUMPDEST PUSH2 0x14F JUMP JUMPDEST PUSH1 0x40 MLOAD PUSH2 0xE3 SWAP2 SWAP1 PUSH2 0x2D2 JUMP JUMPDEST PUSH1 0x40 MLOAD DUP1 SWAP2 SUB SWAP1 RETURN JUMPDEST PUSH2 0x106 PUSH1 0x4 DUP1 CALLDATASIZE SUB DUP2 ADD SWAP1 PUSH2 0x101 SWAP2 SWAP1 PUSH2 0x326 JUMP JUMPDEST PUSH2 0x17C JUMP JUMPDEST PUSH1 0x40 MLOAD PUSH2 0x114 SWAP3 SWAP2 SWAP1 PUSH2 0x534 JUMP JUMPDEST PUSH1 0x40 MLOAD DUP1 SWAP2 SUB SWAP1 RETURN JUMPDEST PUSH2 0x137 PUSH1 0x4 DUP1 CALLDATASIZE SUB DUP2 ADD SWAP1 PUSH2 0x132 SWAP2 SWAP1 PUSH2 0x562 JUMP JUMPDEST PUSH2 0x231 JUMP JUMPDEST STOP JUMPDEST PUSH0 DUP1 SLOAD SWAP1 POP SWAP1 JUMP JUMPDEST PUSH0 SLOAD DUP2 JUMP JUMPDEST DUP1 PUSH0 DUP2 SWAP1 SSTORE POP POP JUMP JUMPDEST PUSH1 0x1 DUP2 DUP1 MLOAD PUSH1 0x20 DUP2 ADD DUP3 ADD DUP1 MLOAD DUP5 DUP3 MSTORE PUSH1 0x20 DUP4 ADD PUSH1 0x20 DUP6 ADD KECCAK256 DUP2 DUP4 MSTORE DUP1 SWAP6 POP POP POP POP POP POP PUSH0 SWAP2 POP SWAP1 POP SLOAD DUP2 JUMP JUMPDEST PUSH1 0x2 DUP2 DUP2 SLOAD DUP2 LT PUSH2 0x18B JUMPI PUSH0 DUP1 REVERT JUMPDEST SWAP1 PUSH0 MSTORE PUSH1 0x20 PUSH0 KECCAK256 SWAP1 PUSH1 0x2 MUL ADD PUSH0 SWAP2 POP SWAP1 POP DUP1 PUSH0 ADD SLOAD SWAP1 DUP1 PUSH1 0x1 ADD DUP1 SLOAD PUSH2 0x1B0 SWAP1 PUSH2 0x5E9 JUMP JUMPDEST DUP1 PUSH1 0x1F ADD PUSH1 0x20 DUP1 SWAP2 DIV MUL PUSH1 0x20 ADD PUSH1 0x40 MLOAD SWAP1 DUP2 ADD PUSH1 0x40 MSTORE DUP1 SWAP3 SWAP2 SWAP1 DUP2 DUP2 MSTORE PUSH1 0x20 ADD DUP3 DUP1 SLOAD PUSH2 0x1DC SWAP1 PUSH2 0x5E9 JUMP JUMPDEST DUP1 ISZERO PUSH2 0x227 JUMPI DUP1 PUSH1 0x1F LT PUSH2 0x1FE JUMPI PUSH2 0x100 DUP1 DUP4 SLOAD DIV MUL DUP4 MSTORE SWAP2 PUSH1 0x20 ADD SWAP2 PUSH2 0x227 JUMP JUMPDEST DUP3 ADD SWAP2 SWAP1 PUSH0 MSTORE PUSH1 0x20 PUSH0 KECCAK256 SWAP1 JUMPDEST DUP2 SLOAD DUP2 MSTORE SWAP1 PUSH1 0x1 ADD SWAP1 PUSH1 0x20 ADD DUP1 DUP4 GT PUSH2 0x20A JUMPI DUP3 SWAP1 SUB PUSH1 0x1F AND DUP3 ADD SWAP2 JUMPDEST POP POP POP POP POP SWAP1 POP DUP3 JUMP JUMPDEST PUSH0 PUSH1 0x40 MLOAD DUP1 PUSH1 0x40 ADD PUSH1 0x40 MSTORE DUP1 DUP5 DUP2 MSTORE PUSH1 0x20 ADD DUP4 DUP2 MSTORE POP SWAP1 POP PUSH1 0x2 DUP2 SWAP1 DUP1 PUSH1 0x1 DUP2 SLOAD ADD DUP1 DUP3 SSTORE DUP1 SWAP2 POP POP PUSH1 0x1 SWAP1 SUB SWAP1 PUSH0 MSTORE PUSH1 0x20 PUSH0 KECCAK256 SWAP1 PUSH1 0x2 MUL ADD PUSH0 SWAP1 SWAP2 SWAP1 SWAP2 SWAP1 SWAP2 POP PUSH0 DUP3 ADD MLOAD DUP2 PUSH0 ADD SSTORE PUSH1 0x20 DUP3 ADD MLOAD DUP2 PUSH1 0x1 ADD SWAP1 DUP2 PUSH2 0x28F SWAP2 SWAP1 PUSH2 0x7B6 JUMP JUMPDEST POP POP POP DUP3 PUSH1 0x1 DUP4 PUSH1 0x40 MLOAD PUSH2 0x2A3 SWAP2 SWAP1 PUSH2 0x8BF JUMP JUMPDEST SWAP1 DUP2 MSTORE PUSH1 0x20 ADD PUSH1 0x40 MLOAD DUP1 SWAP2 SUB SWAP1 KECCAK256 DUP2 SWAP1 SSTORE POP POP POP POP JUMP JUMPDEST PUSH0 DUP2 SWAP1 POP SWAP2 SWAP1 POP JUMP JUMPDEST PUSH2 0x2CC DUP2 PUSH2 0x2BA JUMP JUMPDEST DUP3 MSTORE POP POP JUMP JUMPDEST PUSH0 PUSH1 0x20 DUP3 ADD SWAP1 POP PUSH2 0x2E5 PUSH0 DUP4 ADD DUP5 PUSH2 0x2C3 JUMP JUMPDEST SWAP3 SWAP2 POP POP JUMP JUMPDEST PUSH0 PUSH1 0x40 MLOAD SWAP1 POP SWAP1 JUMP JUMPDEST PUSH0 DUP1 REVERT JUMPDEST PUSH0 DUP1 REVERT JUMPDEST PUSH2 0x305 DUP2 PUSH2 0x2BA JUMP JUMPDEST DUP2 EQ PUSH2 0x30F JUMPI PUSH0 DUP1 REVERT JUMPDEST POP JUMP JUMPDEST PUSH0 DUP2 CALLDATALOAD SWAP1 POP PUSH2 0x320 DUP2 PUSH2 0x2FC JUMP JUMPDEST SWAP3 SWAP2 POP POP JUMP JUMPDEST PUSH0 PUSH1 0x20 DUP3 DUP5 SUB SLT ISZERO PUSH2 0x33B JUMPI PUSH2 0x33A PUSH2 0x2F4 JUMP JUMPDEST JUMPDEST PUSH0 PUSH2 0x348 DUP5 DUP3 DUP6 ADD PUSH2 0x312 JUMP JUMPDEST SWAP2 POP POP SWAP3 SWAP2 POP POP JUMP JUMPDEST PUSH0 DUP1 REVERT JUMPDEST PUSH0 DUP1 REVERT JUMPDEST PUSH0 PUSH1 0x1F NOT PUSH1 0x1F DUP4 ADD AND SWAP1 POP SWAP2 SWAP1 POP JUMP JUMPDEST PUSH32 0x4E487B7100000000000000000000000000000000000000000000000000000000 PUSH0 MSTORE PUSH1 0x41 PUSH1 0x4 MSTORE PUSH1 0x24 PUSH0 REVERT JUMPDEST PUSH2 0x39F DUP3 PUSH2 0x359 JUMP JUMPDEST DUP2 ADD DUP2 DUP2 LT PUSH8 0xFFFFFFFFFFFFFFFF DUP3 GT OR ISZERO PUSH2 0x3BE JUMPI PUSH2 0x3BD PUSH2 0x369 JUMP JUMPDEST JUMPDEST DUP1 PUSH1 0x40 MSTORE POP POP POP JUMP JUMPDEST PUSH0 PUSH2 0x3D0 PUSH2 0x2EB JUMP JUMPDEST SWAP1 POP PUSH2 0x3DC DUP3 DUP3 PUSH2 0x396 JUMP JUMPDEST SWAP2 SWAP1 POP JUMP JUMPDEST PUSH0 PUSH8 0xFFFFFFFFFFFFFFFF DUP3 GT ISZERO PUSH2 0x3FB JUMPI PUSH2 0x3FA PUSH2 0x369 JUMP JUMPDEST JUMPDEST PUSH2 0x404 DUP3 PUSH2 0x359 JUMP JUMPDEST SWAP1 POP PUSH1 0x20 DUP2 ADD SWAP1 POP SWAP2 SWAP1 POP JUMP JUMPDEST DUP3 DUP2 DUP4 CALLDATACOPY PUSH0 DUP4 DUP4 ADD MSTORE POP POP POP JUMP JUMPDEST PUSH0 PUSH2 0x431 PUSH2 0x42C DUP5 PUSH2 0x3E1 JUMP JUMPDEST PUSH2 0x3C7 JUMP JUMPDEST SWAP1 POP DUP3 DUP2 MSTORE PUSH1 0x20 DUP2 ADD DUP5 DUP5 DUP5 ADD GT ISZERO PUSH2 0x44D JUMPI PUSH2 0x44C PUSH2 0x355 JUMP JUMPDEST JUMPDEST PUSH2 0x458 DUP5 DUP3 DUP6 PUSH2 0x411 JUMP JUMPDEST POP SWAP4 SWAP3 POP POP POP JUMP JUMPDEST PUSH0 DUP3 PUSH1 0x1F DUP4 ADD SLT PUSH2 0x474 JUMPI PUSH2 0x473 PUSH2 0x351 JUMP JUMPDEST JUMPDEST DUP2 CALLDATALOAD PUSH2 0x484 DUP5 DUP3 PUSH1 0x20 DUP7 ADD PUSH2 0x41F JUMP JUMPDEST SWAP2 POP POP SWAP3 SWAP2 POP POP JUMP JUMPDEST PUSH0 PUSH1 0x20 DUP3 DUP5 SUB SLT ISZERO PUSH2 0x4A2 JUMPI PUSH2 0x4A1 PUSH2 0x2F4 JUMP JUMPDEST JUMPDEST PUSH0 DUP3 ADD CALLDATALOAD PUSH8 0xFFFFFFFFFFFFFFFF DUP2 GT ISZERO PUSH2 0x4BF JUMPI PUSH2 0x4BE PUSH2 0x2F8 JUMP JUMPDEST JUMPDEST PUSH2 0x4CB DUP5 DUP3 DUP6 ADD PUSH2 0x460 JUMP JUMPDEST SWAP2 POP POP SWAP3 SWAP2 POP POP JUMP JUMPDEST PUSH0 DUP2 MLOAD SWAP1 POP SWAP2 SWAP1 POP JUMP JUMPDEST PUSH0 DUP3 DUP3 MSTORE PUSH1 0x20 DUP3 ADD SWAP1 POP SWAP3 SWAP2 POP POP JUMP JUMPDEST DUP3 DUP2 DUP4 MCOPY PUSH0 DUP4 DUP4 ADD MSTORE POP POP POP JUMP JUMPDEST PUSH0 PUSH2 0x506 DUP3 PUSH2 0x4D4 JUMP JUMPDEST PUSH2 0x510 DUP2 DUP6 PUSH2 0x4DE JUMP JUMPDEST SWAP4 POP PUSH2 0x520 DUP2 DUP6 PUSH1 0x20 DUP7 ADD PUSH2 0x4EE JUMP JUMPDEST PUSH2 0x529 DUP2 PUSH2 0x359 JUMP JUMPDEST DUP5 ADD SWAP2 POP POP SWAP3 SWAP2 POP POP JUMP JUMPDEST PUSH0 PUSH1 0x40 DUP3 ADD SWAP1 POP PUSH2 0x547 PUSH0 DUP4 ADD DUP6 PUSH2 0x2C3 JUMP JUMPDEST DUP2 DUP2 SUB PUSH1 0x20 DUP4 ADD MSTORE PUSH2 0x559 DUP2 DUP5 PUSH2 0x4FC JUMP JUMPDEST SWAP1 POP SWAP4 SWAP3 POP POP POP JUMP JUMPDEST PUSH0 DUP1 PUSH1 0x40 DUP4 DUP6 SUB SLT ISZERO PUSH2 0x578 JUMPI PUSH2 0x577 PUSH2 0x2F4 JUMP JUMPDEST JUMPDEST PUSH0 PUSH2 0x585 DUP6 DUP3 DUP7 ADD PUSH2 0x312 JUMP JUMPDEST SWAP3 POP POP PUSH1 0x20 DUP4 ADD CALLDATALOAD PUSH8 0xFFFFFFFFFFFFFFFF DUP2 GT ISZERO PUSH2 0x5A6 JUMPI PUSH2 0x5A5 PUSH2 0x2F8 JUMP JUMPDEST JUMPDEST PUSH2 0x5B2 DUP6 DUP3 DUP7 ADD PUSH2 0x460 JUMP JUMPDEST SWAP2 POP POP SWAP3 POP SWAP3 SWAP1 POP JUMP JUMPDEST PUSH32 0x4E487B7100000000000000000000000000000000000000000000000000000000 PUSH0 MSTORE PUSH1 0x22 PUSH1 0x4 MSTORE PUSH1 0x24 PUSH0 REVERT JUMPDEST PUSH0 PUSH1 0x2 DUP3 DIV SWAP1 POP PUSH1 0x1 DUP3 AND DUP1 PUSH2 0x600 JUMPI PUSH1 0x7F DUP3 AND SWAP2 POP JUMPDEST PUSH1 0x20 DUP3 LT DUP2 SUB PUSH2 0x613 JUMPI PUSH2 0x612 PUSH2 0x5BC JUMP JUMPDEST JUMPDEST POP SWAP2 SWAP1 POP JUMP JUMPDEST PUSH0 DUP2 SWAP1 POP DUP2 PUSH0 MSTORE PUSH1 0x20 PUSH0 KECCAK256 SWAP1 POP SWAP2 SWAP1 POP JUMP JUMPDEST PUSH0 PUSH1 0x20 PUSH1 0x1F DUP4 ADD DIV SWAP1 POP SWAP2 SWAP1 POP JUMP JUMPDEST PUSH0 DUP3 DUP3 SHL SWAP1 POP SWAP3 SWAP2 POP POP JUMP JUMPDEST PUSH0 PUSH1 0x8 DUP4 MUL PUSH2 0x675 PUSH32 0xFFFFFFFFFFFFFFFFFFFFFFFFFFFFFFFFFFFFFFFFFFFFFFFFFFFFFFFFFFFFFFFF DUP3 PUSH2 0x63A JUMP JUMPDEST PUSH2 0x67F DUP7 DUP4 PUSH2 0x63A JUMP JUMPDEST SWAP6 POP DUP1 NOT DUP5 AND SWAP4 POP DUP1 DUP7 AND DUP5 OR SWAP3 POP POP POP SWAP4 SWAP3 POP POP POP JUMP JUMPDEST PUSH0 DUP2 SWAP1 POP SWAP2 SWAP1 POP JUMP JUMPDEST PUSH0 PUSH2 0x6BA PUSH2 0x6B5 PUSH2 0x6B0 DUP5 PUSH2 0x2BA JUMP JUMPDEST PUSH2 0x697 JUMP JUMPDEST PUSH2 0x2BA JUMP JUMPDEST SWAP1 POP SWAP2 SWAP1 POP JUMP JUMPDEST PUSH0 DUP2 SWAP1 POP SWAP2 SWAP1 POP JUMP JUMPDEST PUSH2 0x6D3 DUP4 PUSH2 0x6A0 JUMP JUMPDEST PUSH2 0x6E7 PUSH2 0x6DF DUP3 PUSH2 0x6C1 JUMP JUMPDEST DUP5 DUP5 SLOAD PUSH2 0x646 JUMP JUMPDEST DUP3 SSTORE POP POP POP POP JUMP JUMPDEST PUSH0 SWAP1 JUMP JUMPDEST PUSH2 0x6FB PUSH2 0x6EF JUMP JUMPDEST PUSH2 0x706 DUP2 DUP5 DUP5 PUSH2 0x6CA JUMP JUMPDEST POP POP POP JUMP JUMPDEST JUMPDEST DUP2 DUP2 LT ISZERO PUSH2 0x729 JUMPI PUSH2 0x71E PUSH0 DUP3 PUSH2 0x6F3 JUMP JUMPDEST PUSH1 0x1 DUP2 ADD SWAP1 POP PUSH2 0x70C JUMP JUMPDEST POP POP JUMP JUMPDEST PUSH1 0x1F DUP3 GT ISZERO PUSH2 0x76E JUMPI PUSH2 0x73F DUP2 PUSH2 0x619 JUMP JUMPDEST PUSH2 0x748 DUP5 PUSH2 0x62B JUMP JUMPDEST DUP2 ADD PUSH1 0x20 DUP6 LT ISZERO PUSH2 0x757 JUMPI DUP2 SWAP1 POP JUMPDEST PUSH2 0x76B PUSH2 0x763 DUP6 PUSH2 0x62B JUMP JUMPDEST DUP4 ADD DUP3 PUSH2 0x70B JUMP JUMPDEST POP POP JUMPDEST POP POP POP JUMP JUMPDEST PUSH0 DUP3 DUP3 SHR SWAP1 POP SWAP3 SWAP2 POP POP JUMP JUMPDEST PUSH0 PUSH2 0x78E PUSH0 NOT DUP5 PUSH1 0x8 MUL PUSH2 0x773 JUMP JUMPDEST NOT DUP1 DUP4 AND SWAP2 POP POP SWAP3 SWAP2 POP POP JUMP JUMPDEST PUSH0 PUSH2 0x7A6 DUP4 DUP4 PUSH2 0x77F JUMP JUMPDEST SWAP2 POP DUP3 PUSH1 0x2 MUL DUP3 OR SWAP1 POP SWAP3 SWAP2 POP POP JUMP JUMPDEST PUSH2 0x7BF DUP3 PUSH2 0x4D4 JUMP JUMPDEST PUSH8 0xFFFFFFFFFFFFFFFF DUP2 GT ISZERO PUSH2 0x7D8 JUMPI PUSH2 0x7D7 PUSH2 0x369 JUMP JUMPDEST JUMPDEST PUSH2 0x7E2 DUP3 SLOAD PUSH2 0x5E9 JUMP JUMPDEST PUSH2 0x7ED DUP3 DUP3 DUP6 PUSH2 0x72D JUMP JUMPDEST PUSH0 PUSH1 0x20 SWAP1 POP PUSH1 0x1F DUP4 GT PUSH1 0x1 DUP2 EQ PUSH2 0x81E JUMPI PUSH0 DUP5 ISZERO PUSH2 0x80C JUMPI DUP3 DUP8 ADD MLOAD SWAP1 POP JUMPDEST PUSH2 0x816 DUP6 DUP3 PUSH2 0x79B JUMP JUMPDEST DUP7 SSTORE POP PUSH2 0x87D JUMP JUMPDEST PUSH1 0x1F NOT DUP5 AND PUSH2 0x82C DUP7 PUSH2 0x619 JUMP JUMPDEST PUSH0 JUMPDEST DUP3 DUP2 LT ISZERO PUSH2 0x853 JUMPI DUP5 DUP10 ADD MLOAD DUP3 SSTORE PUSH1 0x1 DUP3 ADD SWAP2 POP PUSH1 0x20 DUP6 ADD SWAP5 POP PUSH1 0x20 DUP2 ADD SWAP1 POP PUSH2 0x82E JUMP JUMPDEST DUP7 DUP4 LT ISZERO PUSH2 0x870 JUMPI DUP5 DUP10 ADD MLOAD PUSH2 0x86C PUSH1 0x1F DUP10 AND DUP3 PUSH2 0x77F JUMP JUMPDEST DUP4 SSTORE POP JUMPDEST PUSH1 0x1 PUSH1 0x2 DUP9 MUL ADD DUP9 SSTORE POP POP POP JUMPDEST POP POP POP POP POP POP JUMP JUMPDEST PUSH0 DUP2 SWAP1 POP SWAP3 SWAP2 POP POP JUMP JUMPDEST PUSH0 PUSH2 0x899 DUP3 PUSH2 0x4D4 JUMP JUMPDEST PUSH2 0x8A3 DUP2 DUP6 PUSH2 0x885 JUMP JUMPDEST SWAP4 POP PUSH2 0x8B3 DUP2 DUP6 PUSH1 0x20 DUP7 ADD PUSH2 0x4EE JUMP JUMPDEST DUP1 DUP5 ADD SWAP2 POP POP SWAP3 SWAP2 POP POP JUMP JUMPDEST PUSH0 PUSH2 0x8CA DUP3 DUP5 PUSH2 0x88F JUMP JUMPDEST SWAP2 POP DUP2 SWAP1 POP SWAP3 SWAP2 POP POP JUMP INVALID LOG2 PUSH5 0x6970667358 0x22 SLT KECCAK256 SGT MSIZE 0x4B SWAP12 0xBD SWAP15 0x4E 0xEE PUSH0 DUP15 COINBASE TSTORE PUSH24 0x5E5C1C3F95F199382316235D253BA24483DE4B64736F6C63 NUMBER STOP ADDMOD NOT STOP CALLER LOG2 PUSH5 0x6970667358 0x22 SLT KECCAK256 XOR LOG2 0xF8 MCOPY GAS OR 0xCF PUSH30 0x789F25C73A8E1745F271557CC58F50239296AA07A2F136DC64736F6C6343 STOP ADDMOD NOT STOP CALLER "
		},
		"gasEstimates": {
			"creation": {
				"codeDepositCost": "722600",
				"executionCost": "751",
				"totalCost": "723351"
			},
			"external": {
				"CreateSimpleStorageContract()": "infinite",
				"SimpleFunctionGet(uint256)": "infinite",
				"SimpleFunctionStore(uint256,uint256)": "infinite",
				"simpleStorageArray(uint256)": "infinite"
			}
		},
		"methodIdentifiers": {
			"CreateSimpleStorageContract()": "9fa05b28",
			"SimpleFunctionGet(uint256)": "cd81ee61",
			"SimpleFunctionStore(uint256,uint256)": "81a1405f",
			"simpleStorageArray(uint256)": "64591bf1"
		}
	},
	"abi": [
		{
			"inputs": [],
			"name": "CreateSimpleStorageContract",
			"outputs": [],
			"stateMutability": "nonpayable",
			"type": "function"
		},
		{
			"inputs": [
				{
					"internalType": "uint256",
					"name": "_simpleStoreIndex",
					"type": "uint256"
				}
			],
			"name": "SimpleFunctionGet",
			"outputs": [
				{
					"internalType": "uint256",
					"name": "",
					"type": "uint256"
				}
			],
			"stateMutability": "view",
			"type": "function"
		},
		{
			"inputs": [
				{
					"internalType": "uint256",
					"name": "_simpleStoreIndex",
					"type": "uint256"
				},
				{
					"internalType": "uint256",
					"name": "_simpleStoreNumber",
					"type": "uint256"
				}
			],
			"name": "SimpleFunctionStore",
			"outputs": [],
			"stateMutability": "nonpayable",
			"type": "function"
		},
		{
			"inputs": [
				{
					"internalType": "uint256",
					"name": "",
					"type": "uint256"
				}
			],
			"name": "simpleStorageArray",
			"outputs": [
				{
					"internalType": "contract SimpleStorage",
					"name": "",
					"type": "address"
				}
			],
			"stateMutability": "view",
			"type": "function"
		}
	]
}